:020000040800F2
:10000000300500209D010008890C00088B0C0008B9
:100010008F0C0008930C0008970C000800000000EB
:100020000000000000000000000000009D0C00081F
:100030009B0C0008000000009F0C0008A10C0008A9
:10004000B7010008B7010008B7010008B7010008B0
:10005000B7010008B7010008B7010008B7010008A0
:10006000B7010008B7010008B7010008B701000890
:10007000B7010008B7010008B7010008B701000880
:10008000B7010008B7010008B7010008B701000870
:10009000B7010008B7010008B7010008B701000860
:1000A000B7010008B7010008B7010008B701000850
:1000B000B7010008070C0008B7010008B7010008E5
:1000C000B7010008B7010008B7010008B701000830
:1000D000B7010008B7010008B70100083F0C00088D
:1000E000B7010008B7010008B7010008B701000810
:1000F000B7010008B7010008B7010008B701000800
:10010000B7010008B7010008B7010008B7010008EF
:10011000B7010008B7010008B7010008B7010008DF
:10012000B7010008B7010008B7010008B7010008CF
:10013000B7010008B7010008B7010008B7010008BF
:10014000B7010008B7010008B7010008B7010008AF
:10015000B7010008B7010008B7010008B70100089F
:10016000B7010008B7010008B7010008B70100088F
:10017000B7010008B7010008B7010008B70100087F
:10018000B7010008B7010008DFF80CD006F0C8FC82
:1001900000480047CF090008300500200648804786
:1001A00006480047FEE7FEE7FEE7FEE7FEE7FEE75C
:1001B000FEE7FEE7FEE7FEE73B35000889010008A1
:1001C00070B504460E464FF48061F74801F0E2FD39
:1001D0002EB14FF48051F44801F0DAFD04E04FF401
:1001E0008051F14801F0D6FD002520E014F0800F89
:1001F00005D04FF40051EC4801F0CAFD04E04FF483
:100200000051E94801F0C6FD6006040E4FF480413C
:10021000E54801F0BFFD4FF48041E34801F0B8FD2F
:100220004FF48041E04801F0B5FD681CC5B2082DCF
:10023000DCDB70BD1CB54FF47C40009001208DF8D4
:10024000040000208DF806008DF805006946D648A8
:1002500001F022FD4FF48061D34801F099FD4FF485
:100260000061D14801F094FD012005F06BFD4FF4D1
:100270000061CD4801F08EFD012005F063FD4FF4D3
:100280000061C94801F084FD012005F05BFD0021FB
:100290002120FFF795FF0021D020FFF791FF0021DB
:1002A0002020FFF78DFF00210C20FFF789FF4FF47E
:1002B0008061BD4801F06CFD1CBD70B504460D4663
:1002C00045F040000021FFF77BFF44F08000002153
:1002D000FFF776FF4FF48061B34801F059FD70BD20
:1002E00070B500210846FFF7E8FF00240BE0002569
:1002F00005E001210020FFF763FF681CC5B2542D03
:10030000F7DB601CC4B2062CF1DB4FF48061A64819
:1003100001F03EFD70BD70B50446A4F12000C4B2EA
:1003200000250AE004EB4401A04A02EB4101485DCC
:100330000121FFF745FF681CC5B2062DF2DB70BD39
:1003400070B505460E46144631462846FFF7B5FF00
:1003500003E02078FFF7DFFF641C20780028F8D145
:1003600070BD2DE9F04106460F461546F106080E10
:100370003946FFF7A2FF002408E004EB05118C4A80
:10038000505C0121FFF71CFF601CC4B2082CF4DB99
:100390007A1CD1B2F206100EFFF78FFF082408E096
:1003A00004EB0511824A505C0121FFF709FF601C34
:1003B000C4B2102CF4DB4FF480617B4801F0E8FC00
:1003C000BDE8F0812DE9F05F82468B461446594620
:1003D0005046FFF772FF002C04DA64422D20FFF72D
:1003E0009AFF02E02020FFF796FF42F2107094FB84
:1003F000F0F0C5B242F2107094FBF0F100FB114036
:100400004FF47A7190FBF1F0C6B2084694FBF0F11C
:1004100000FB1140642190FBF1F0C7B2642094FB13
:10042000F0F100FB11400A2190FBF1F000F0FF0811
:100430000A2094FBF0F100FB114000F0FF0905F1E8
:100440003001C8B2FFF767FF06F13001C8B2FFF70D
:1004500062FF07F13001C8B2FFF75DFF08F130011C
:10046000C8B2FFF758FF09F13001C8B2FFF753FFD8
:10047000BDE8F09F2DE9F04705460E46144631468B
:100480002846FFF71AFFC4F3C007C4F38008C4F37B
:10049000400904F0010A07F13000FFF73CFF08F1C2
:1004A0003000FFF738FF09F13000FFF734FF0AF1A1
:1004B0003000FFF730FFBDE8F087F0B5A9B0064681
:1004C00000244FE0002549E0E00000EB800006EB4F
:1004D000801010F8350078281FDDE21704EB527207
:1004E000D21002EB820201AB03EBC202525D214645
:1004F000E31704EB5373DB10A4EBC307FE23BB40ED
:100500001A402046E31704EB5373DB1003EB83031D
:1005100001AF07EBC3035A551EE02046E21704EB78
:100520005272D21002EB820201AB03EBC202525DA7
:100530002146E31704EB5373DB10A4EBC30701233D
:10054000BB401A43E31704EB5373DB1003EB830345
:1005500001AF07EBC3035A55681CC5B2282DB3DBA6
:10056000601CC4B21E2CADDB00210846FFF7A5FEBF
:10057000002414E021460020FFF79FFE00250AE03A
:1005800004EB840101AA02EBC101485D0121FFF7E0
:1005900017FE681CC5B2282DF2DB601CC4B2042C07
:1005A000E8DB29B0F0BD000000100240446E0008F6
:1005B0006C7000082DE9F0438BB004460D46002610
:1005C0000027B046B14600214FF0804002F01EF8EF
:1005D0000121084601F0D9FD02208DF828000020F5
:1005E0008DF82A0002208DF8290001208DF82B00BB
:1005F0000F20099009A9FE4801F04EFB01220021BD
:10060000FB4801F0D4FB01221146F94801F0CFFB71
:1006100001220221F64801F0CAFB01220321F4481D
:1006200001F0C5FB0794ADF818500020ADF820008C
:10063000ADF81A008DF8220006A94FF0804001F0B5
:100640005CFF6020ADF804000120ADF806000396C1
:100650000020ADF8100001A94FF0804001F0E2FF4A
:10066000039701A94FF0804002F015F8CDF80C80F7
:1006700001A94FF0804002F05BF8CDF80C9001A981
:100680004FF0804002F0BAF80121880701F0BEFF68
:100690000BB0BDE8F08310B5002142F21070FFF7F7
:1006A00089FF10BD10B5FFF7F6FF10BD70B5054608
:1006B0000C46012C08D12946A00702F00CF90021B4
:1006C000A00702F00AF90CE0022C08D10021600713
:1006D00002F001F92946600702F0FFF801E000BFCF
:1006E000FEE770BD70B505460C46012C08D12946C1
:1006F000A00702F0F4F80021A00702F0F2F80CE0E5
:10070000022C08D10021600702F0E9F829466007B1
:1007100002F0E7F801E000BFFEE770BD10B5FFF79B
:10072000BAFF10BD2DE9F04180460F461446002562
:100730000026A8EB040005B2381906B2002D05DA30
:100740000221684200B2FFF7B1FF03E00121284611
:10075000FFF7ACFF002E05DA0221704200B2FFF76E
:10076000C1FF03E001213046FFF7BCFFBDE8F08187
:1007700030B502460B464FF6FF70002112E0555C83
:10078000684000240AE010F0010F04D04AF201058D
:1007900085EA600000E04010651CECB2082CF2DB3A
:1007A0004D1CE9B29942EADB30BD2DE9FF41044618
:1007B0000D4616461F46E0B28DF80000200A8DF85F
:1007C0000100E8B28DF80200280A8DF80300F0B2AB
:1007D0008DF80400300A8DF80500F8B28DF8060097
:1007E000380A8DF807009DF80010824802F02BFDB2
:1007F00000BF40217F4802F0D6FD0028F9D09DF8C7
:1008000001107C4802F01FFD00BF4021794802F032
:10081000CAFD0028F9D09DF80210764802F013FDB9
:1008200000BF4021734802F0BEFD0028F9D09DF8BA
:100830000310704802F007FD00BF40216D4802F030
:10084000B2FD0028F9D09DF804106A4802F0FBFCC4
:1008500000BF4021674802F0A6FD0028F9D09DF8AE
:100860000510644802F0EFFC00BF4021614802F02F
:100870009AFD0028F9D09DF806105E4802F0E3FCCE
:1008800000BF40215B4802F08EFD0028F9D09DF8A2
:100890000710584802F0D7FC00BF4021554802F02D
:1008A00082FD0028F9D008216846FFF761FF8046E5
:1008B00008F0FF014F4802F0C6FC00BF40214D4840
:1008C00002F071FD0028F9D04FEA1821494802F0E2
:1008D000BAFC00BF4021474802F065FD0028F9D06E
:1008E000BDE8FF812DE9F84F05460E461446E9881C
:1008F000A1F6E80005F06FFF00903F4801680098FE
:1009000005F01AFE8246A6F5E16005F064FF00904E
:100910003A480168009805F00FFE8346514605F0FD
:10092000B3FD814636480088201A0FFA80F8344813
:100930004088201A07B2384605F04DFF82463148FC
:100940000168504605F0A0FD2E490860404605F0BC
:1009500042FF82462C480168504605F095FD2A4921
:100960000860384605F037FF009028480168009875
:1009700005F0E2FD8246244801682548006805F03C
:10098000DBFD4946009005F0D4FD8346514605F055
:10099000CDFD20490860404605F01DFF00901B4832
:1009A0000168009805F0C8FD82461648016818489D
:1009B000006805F0C1FD4946009005F0BAFD834688
:1009C000514605F0B3FD14490860BDE8F88F1CB529
:1009D00005F0DAF905F028FB05F01CFA05F07CF9C2
:1009E000FFF760FE02F03CFE03F0FCF916E00000A9
:1009F00000000240004800400C00002008000020D9
:100A00001800002004000020000000201400002036
:100A1000100000201C0000202000002005F0E5FB55
:100A200005F0BEFC02F0B3FEECE005F097FB0446D7
:100A3000204605F009FC40F6E801204605F098FB49
:100A4000054605F099FC0446A08801B242F21073F5
:100A5000642228B2FFF7A9FE424629462046FFF746
:100A600041FF7D48006805F0E2FE06B27B48006861
:100A700005F0DDFE07B2002231463846FFF752FE90
:100A8000052005F05FF97648B0F9000000280DDA7E
:100A900000201021CDE900107148B0F90000424259
:100AA00005236421002005F06AF80BE000201021E6
:100AB000CDE900106A48B0F9002005236421002028
:100AC00005F05DF86648B0F9020000280DDA002054
:100AD0001021CDE900106248B0F90200424205231E
:100AE0007421002005F04BF80BE000201021CDE927
:100AF00000105B48B0F9022005237421002005F0A6
:100B00003EF858A010210B46C822CDE900108221E2
:100B10008C2005F093F800201021CDE900102288E8
:100B2000042382219C2005F02AF84FA010210B46B7
:100B3000C822CDE9001092218C2005F07FF800201A
:100B40001021CDE900106288042392219C2005F039
:100B500016F846A010210B46C822CDE90010A221AC
:100B60008C2005F06BF800201021CDE90010A28840
:100B70000423A2219C2005F002F83DA010210B4681
:100B8000C822CDE90010B2218C2005F057F80020D2
:100B90001021CDE90010E2880423B2219C2004F04A
:100BA000EEFFA188A1F26C7005F015FE074605F076
:100BB000FEFB06460020102105233246CDE9001039
:100BC000B221FA2004F0DBFF2AA010210B46C82234
:100BD000CDE90010C2218C2005F030F80020102152
:100BE000CDE9001022890423C2219C2004F0C7FF14
:100BF00000201021CDE90010A2880423D2219C20DE
:100C000004F0BDFF11E710B501211B4802F02AF9DD
:100C10001A48406A44F62061081A00B21049088058
:100C20001748006844F62061081A00B20C49488051
:100C300044F62060114948621149086010BD10B5A2
:100C40002021104802F0AFFB012803D120210D48DC
:100C500002F0B6FB10BD0000200000201C000020A8
:100C60001800002078000000790000007A000000E1
:100C70006700000061000000000400400000014027
:100C80002408004000480040704700BFFEE700BF56
:100C9000FEE700BFFEE700BFFEE770477047704702
:100CA00010B505F05CF810BD33490143334A1160BB
:100CB000704770B5002100230F22C47824B32F4C55
:100CC000246804F4E064C4F5E064C4F30721C1F1CE
:100CD0000404E3B20A4144789C40E1B284781440B1
:100CE00021430C07210E264C05786155047804F049
:100CF0001F050124AC4005786D114FF0E02606EB8E
:100D00008505C5F8004109E0047804F01F040125B9
:100D1000A5401C4C0678761144F8265070BD1A4A3E
:100D20000A400243154B1B1F1A60704739B1134A22
:100D3000121D12680243114B1B1D1A6006E00F4A78
:100D4000121D126882430D4B1B1D1A607047042848
:100D500008D14FF0E021096941F004014FF0E02291
:100D6000116107E04FF0E021096921F004014FF023
:100D7000E0221161704700000000FA050CED00E070
:100D800000E400E080E100E080FFFF1F10B50121DA
:100D9000080201F073FA00214FF4807001F06EFA3E
:100DA00010BD30B50246002000235068F84C2040AA
:100DB0000D790C6844EA0524204350609068F54C96
:100DC0002040D1E903542C438D682C434D7944EAEB
:100DD000450420439060D06A20F470000C7D641EAE
:100DE000E4B2234340EA0350D06230BD00210160E9
:100DF000017141718160C16001610121017570471C
:100E00000021E54A1168E54A01EA0201D0E9002320
:100E100042EA0302836842EA0302C36842EA030229
:100E200042EA0101DE4AC2F8041370470021016062
:100E300041608160C160704721B1826842F0010267
:100E4000826003E0826822F00102826070470A46F5
:100E500000214168D34B1940114341607047416202
:100E6000826270470A460021416821F01F01114348
:100E70004160704738B1C849096841F40001C84A67
:100E8000C2F8041306E0C449096821F40001C44A09
:100E9000C2F80413704738B1BF49096841F48001B2
:100EA000BF4AC2F8041306E0BB49096821F4800177
:100EB000BB4AC2F804137047F0B504460D46002043
:100EC0000021092D11DDE068A5F10A0606EB4607B1
:100ED000072606FA07F18843A5F10A0606EB46063F
:100EE00003FA06F10843E0600CE0206905EB4507D2
:100EF000072606FA07F1884305EB450603FA06F1D3
:100F000008432061072A0FDA606B561E06EB86073E
:100F10001F2606FA07F18843561E06EB860605FAD9
:100F200006F10843606322E00D2A0FDA206BD61F1A
:100F300006EB86071F2606FA07F18843D61F06EB45
:100F4000860605FA06F10843206310E0E06AA2F184
:100F50000D0606EB86071F2606FA07F18843A2F165
:100F60000D0606EB860605FA06F10843E062F0BDC1
:100F7000816841F0804181607047014600208A68A5
:100F800012F4800F01D0012000E00020704721B151
:100F9000826842F48062826003E0826822F48062A8
:100FA0008260704721B1826842F00202826003E0F1
:100FB000826822F002028260704710B50A46002162
:100FC0000023416821F46041531E41EA43314160EE
:100FD00010BD21B1426842F40062426003E0426801
:100FE00022F40062426070470146C86C80B27047CC
:100FF0006D480068704721B1826842F48072826057
:1010000003E0826822F480728260704721B18268B6
:1010100042F40072826003E0826822F4007282600F
:10102000704738B15C49096841F400515C4AC2F824
:10103000041306E05849096821F40051584AC2F8DF
:1010400004137047F0B50446154600200022002620
:10105000092911DDE068A1F10A0707EB470C072712
:1010600007FA0CF29043A1F10A0707EB470703FACE
:1010700007F21043E0600CE0206901EB410C072708
:1010800007FA0CF2904301EB410703FA07F2104311
:101090002061A06BC0F30156EF1C06F1010CA7EB19
:1010A0000C0707EB870C1F2707FA0CF29043EF1C85
:1010B00006F1010CA7EB0C0707EB870701FA07F213
:1010C0001043A063F0BD10B50A4600210023816BD8
:1010D00021F44011531E41EA0351816310BD08B54C
:1010E000002300930090009B0B440093009B1A6028
:1010F00008BD0A460021816821F4702111438160F6
:1011000070470A460021816821F440111143816033
:101110007047816841F4800181607047014600207A
:101120008A6812F4800F01D0012000E0002070478F
:1011300021B1426842F48062426003E0426822F4D6
:1011400080624260704721B1426842F4805242603E
:1011500003E0426822F480524260704708B50246BC
:1011600000200090009201F12800009B184400909C
:101170000098006880B208BD10B50B460021D9B2B6
:10118000012404FA01F18AB144680C43446010E080
:10119000FFFEFFFCFDF7FFC004230140E030FCFF31
:1011A00000200140FFFD3FFF0823014044688C43BD
:1011B000446010BD0246002013680B4201D001209C
:1011C00000E000207047CA430260704770B50246D5
:1011D0000020002300240B12556801268E4005EAEA
:1011E000060415681D4202D00CB1012000E0002069
:1011F00070BD00220A12D34303607047016821F0DA
:10120000010101600021016041608160C1600161F4
:1012100021214161DA49884204D13D21D84A103A5E
:1012200091608CE0D6491831884205D14FF4746141
:10123000D34A103A916082E0D1493031884205D1D9
:101240004FF47411CE4A103A916078E0CC4948319D
:10125000884205D14FF07461C94A103A91606EE03E
:10126000C7496031884204D1C649C54A103AD160A5
:1012700065E0C3497831884204D1C349C04A103A75
:10128000D1605CE0BE499031884204D1BF49BC4A7C
:10129000103AD16053E0BA49A831884205D14FF0E5
:1012A0003D51B74A103AD16049E0B949884204D16A
:1012B0003D21B74A083A116041E0B54918318842EA
:1012C00005D14FF47461B24A083A116037E0B04971
:1012D0003031884205D14FF47411AD4A083A11609B
:1012E0002DE0AB494831884205D14FF07461A84ADE
:1012F000083A116023E0A6496031884204D1A1492F
:10130000A34A121F11601AE0A1497831884204D122
:101310009D499F4A121F116011E09D4990318842FA
:1013200004D19A499A4A121F116008E09849A831DD
:10133000884204D14FF03D51954A121F1160704709
:1013400010B500220268934B1A40CC680B68234307
:101350004C6923438C692343CC6923430C6A2343A0
:101360004C6A23438C6A23434C6B23438C6B23438B
:101370001A430260426922F00702D1E90B34234389
:101380001A4342610B6943604B6883608B68C3609A
:1013900010BD0021016041608160C1600161416157
:1013A0008161C161016241628162C1620163416325
:1013B0008163704721B1026842F00102026003E0DC
:1013C000026822F001020260704721B1026842F413
:1013D0000042026003E0026822F4004202607047AB
:1013E00021B1026842F02002026003E0026822F0AC
:1013F000200202607047416070470146486880B231
:10140000704722B1036843F40023036003E00368DC
:1014100023F4002303600161704721B1026842F4A4
:101420008022026003E0026822F48022026070479A
:101430000AB1016100E0C1607047014600200A68FE
:1014400012F4002F01D0012000E000207047014677
:1014500000200A6812F0010F01D0012000E00020F6
:101460007047014600204A6902F03800704730B5E5
:1014700003460A4600200024454DAB4202D24049B3
:10148000103901E04249103912F0005F01D04C6878
:1014900000E00C68404D2C40144201D0012000E0D7
:1014A000002030BD02463A4B9A4202D234481038EE
:1014B00001E03748103811F0005F03D0364B0B4085
:1014C000C36002E0344B0B408360704710B511F0ED
:1014D000800F09D022B1436943F08003436103E0E8
:1014E000436923F08003436180290BD02AB103684C
:1014F00001F01E042343036004E0036801F01E04AE
:10150000A343036010BD70B50246002000240025EF
:101510001F4EB24202D21A4B103B01E01C4B103B53
:101520001E4E314206D01E2606EAD124166806EA6F
:10153000040502E0566906F0800511F0005F01D055
:101540005C6800E01C68144E34400C4202D00DB1BF
:10155000012000E0002070BD02460D4B9A4202D2ED
:101560000748103801E00A48103811F0005F03D036
:10157000094B0B40C36002E0074B0B408360704790
:10158000106002403D000020400F002000003D2080
:10159000106402403F801CF07D0F7D0F3C0F3C0F1C
:1015A00030B943F2DB014FF0204242F8201005E051
:1015B00043F2D2014FF0204242F820106FF0704207
:1015C000411C4FF0204343F8212011461A4602EBFC
:1015D0008002C2F804117047D0E901121143C268B9
:1015E0001143026911434269114382691143C2697F
:1015F0001143026A1143426A1143826A1143C26A6B
:101600001143026B11434FF02043026843F822104C
:101610008168082908D11A46016852F8211041F062
:101620004001026843F82210416B0968426B52681E
:1016300041EA0211426B926841EA0221426B9289AF
:1016400041EA0241426B128A41EA0251426B127D29
:1016500041EA0261426B926911430268521C4FF0E9
:10166000204343F82210C16AB1F5804F1AD1816B33
:101670000968826B526841EA0211826B926841EA02
:101680000221826B128A41EA0251826B127D41EA89
:101690000261826B92691143026803EB8202C2F815
:1016A000041108E06FF070414FF02043026803EB33
:1016B0008202C2F8041170470021016002214160DA
:1016C00000218160C160016141618161C16101628C
:1016D0004FF480514162490081620021C16201637F
:1016E0000F21426B1160426B5160FF21426B916090
:1016F0000F21426BD160426B1161426B516100213D
:10170000426B91610F21826B1160826B5160FF21EE
:10171000826B91600F21826BD160826B1161826B51
:1017200051610021826B9161704751B14FF02042AD
:1017300052F8202042F001024FF0204343F82020CD
:1017400009E04FF0204252F82020F84B1A404FF0A9
:10175000204343F82020704710280AD118214FF069
:1017600020421166402151664FF0FC319166D166EE
:1017700010E01821EE4A11604FF040014FF0204276
:10178000C2F884104FF0FC31EA4A11604FF0204259
:10179000C2F88C10704730B5002100220023446845
:1017A00044F0080485682C43C5682C4305692C4324
:1017B000456944EA4524856944EA4531C469246899
:1017C000C5696D6844EA0524C5692D8944EA054464
:1017D000C5692D7B44EA0562046A2468056A6D6860
:1017E00044EA0524056A2D8944EA0544056A2D7BEF
:1017F00044EA05630468102C05D14FF020442166AB
:10180000A266E36607E0CA4C21604FF02044C4F8AA
:101810008820C94C236030BD102101600021416047
:101820008160C160016141618161FC21C269116017
:10183000C2695160C2699160C269D160026A116077
:10184000026A5160026A9160026AD160704799B180
:10185000102808D14FF02042126E42F004024FF0DF
:1018600020431A661DE0B24A126842F004024FF0AB
:101870002043C3F8802014E0102809D14FF0204203
:10188000126EAA4BDB1E1A404FF020431A6608E086
:10189000A74A1268A94B02EA03024FF02043C3F89B
:1018A0008020704799B1102808D14FF02042126E65
:1018B00042F040024FF020431A661DE09C4A126835
:1018C00042F040024FF02043C3F8802014E010287B
:1018D00009D14FF02042126E984B3C3B1A404FF01A
:1018E00020431A6608E0924A1268954B02EA030206
:1018F0004FF02043C3F88020704701460020102994
:1019000003D14FF02042506F01E08E4A10687047BB
:1019100018208D4908604FF000004FF02041C1F8B9
:10192000A4004FF0FC308949086001F1040108600F
:1019300001F1040108607047016841F0100142683C
:1019400041EA4221826841EA42317F4A1160C1681E
:101950000968C268526841EA0221C268128941EAF4
:101960000241C268127B41EA0261784A1160016952
:1019700009680269526841EA02210269128941EA52
:1019800002410269127B41EA0261714A11604169B8
:1019900009684269526841EA02214269128941EAB2
:1019A00002414269127B41EA02614FF02042C2F8D3
:1019B000B01070470021016041608160FC21C26865
:1019C0001160C2685160C2689160C268D1600269EA
:1019D000116002695160026991600269D1604269D7
:1019E000116042695160426991604269D1607047FB
:1019F00040B15549096841F004014FF02042C2F856
:101A0000A01008E0504909684C4A01EA02014FF071
:101A10002042C2F8A010704710B5F2B1102807D1CB
:101A20004FF020435B6E0B434FF02044636632E07F
:101A3000B0F5807F08D1474B1B6843EA01034FF0A4
:101A40002044C4F8843026E0434B1B6843EA01037A
:101A50004FF02044C4F8A4301DE0102807D14FF007
:101A600020435B6E8B434FF02044636613E0B0F578
:101A7000807F08D1374B1B6823EA01034FF02044D5
:101A8000C4F8843007E0344B1B6823EA01034FF0AD
:101A90002044C4F8A43010BD10B502460020002335
:101AA000102A03D14FF02044636E07E0B2F5807F27
:101AB00002D1284C236801E0274C23680B4201D057
:101AC000012000E0002010BD102807D14FF0204277
:101AD000526E8A434FF020435A6613E0B0F5807F80
:101AE00008D11C4A126822EA01024FF02043C3F8D1
:101AF000842007E0184A126822EA01024FF02043CE
:101B0000C3F8A420704770B50246002000230024CB
:101B10000025102A03D14FF02046736E20E0B2F565
:101B2000807F1BD10B4E33681AE00000FEFF0F00D0
:101B3000800000A0880000A08C0000A0FBFF0F0028
:101B4000BFFF0F00940000A0A00000A0A80000A00C
:101B5000AC0000A0840000A0A40000A0154E3368D3
:101B600003EA010403EAD10514B10DB1012000E03C
:101B7000002070BD102808D14FF02042526E22EA9A
:101B8000D1024FF020435A6613E0B0F5807F08D1B0
:101B9000094A126822EAD1024FF02043C3F8842098
:101BA00007E0044A126822EAD1024FF02043C3F84A
:101BB000A4207047A40000A0840000A010B5044633
:101BC0008C48844208D10121084600F000FB002126
:101BD000012000F0FCFA5EE08748844208D1012130
:101BE000022000F0F4FA0021022000F0F0FA52E0A6
:101BF0008248844208D10121042000F0E8FA002143
:101C0000042000F0E4FA46E07D48844208D1012136
:101C1000082000F0DCFA0021082000F0D8FA3AE0B1
:101C20007848844208D10121102000F0D0FA002128
:101C3000102000F0CCFA2EE07348844208D1012134
:101C4000202000F0C4FA0021202000F0C0FA22E099
:101C50006E48844208D10121402000F0B8FA0021EA
:101C6000402000F0B4FA16E06948844208D101210E
:101C7000802000F0ACFA0021802000F0A8FA0AE0F1
:101C80006448844207D10121801500F0A0FA0021A8
:101C9000A01500F09CFA10BDF0B50A460021002303
:101CA000002400BF3DE0012505FA01F3156805EAAF
:101CB00003049C4234D105684F000326BE40B5435F
:101CC000056015794E00B540066835430560157905
:101CD000012D02D01579022D16D185684F000326FB
:101CE000BE40B543856055794E00B54086683543A2
:101CF0008560456801268E40B54345604568967904
:101D00008E40B6B235434560C5684F000326BE40DD
:101D1000B543C560D5794E00B540C6683543C5604A
:101D2000491C1029BFD3F0BD4FF6FF71016000219F
:101D3000017141718171C171704708B54FF48032F2
:101D40000092009A0A430092009AC261C161009A0F
:101D5000C261C2690092C269009208BD02460020B9
:101D600013690B4201D0012000E0002070470146BA
:101D7000086980B270470246002053690B4201D0C7
:101D8000012000E0002070470146486980B270479A
:101D900001837047418370470AB1018300E04183AA
:101DA00070474161704742694A4042617047F0B5EF
:101DB000002300244D07ED0E02FA05F3CE1000F1CA
:101DC000200555F826504E07F70E0F26BE40B543A6
:101DD000CF1000F1200646F82750CE1000F1200564
:101DE00055F8265045EA0304CE1000F1200545F8C9
:101DF0002640F0BD000002400004024000080240FE
:101E0000000C024000100240001402400018024082
:101E1000001C024000200240FA48006840F0010027
:101E2000F84908600020F74908310860F548006863
:101E3000F5490840F3490860F448091D0860081F87
:101E4000006820F48020091F08600020ED490C3153
:101E5000086070470021EB4A921C1170114608700F
:101E6000704710B501460022002300204A11012AC4
:101E700002D1E44C236808E0022A03D1E14C70341B
:101E8000236802E0DF4C7434236801F01F02012450
:101E900094401C4201D0012000E0002010BD38B564
:101EA000002000900024002500BF3120FFF7D9FF5B
:101EB00005460098401C00900098B0F5A06F01D036
:101EC000002DF2D03120FFF7CCFF08B1012400E053
:101ED0000024204638BD01460020CA4A106820F080
:101EE000F80040EAC10010607047C94908607047B7
:101EF0000021C44A703211701170012802D00428E8
:101F00000AD104E00121BF4A7032117005E00521B9
:101F1000BC4A7032117000E000BF00BF7047BD497D
:101F20000860704770B5049C41EA82150126C6EB33
:101F3000530645EA0645054345EA0465B14E361D9C
:101F4000356070BDB24908667047820142EA01728D
:101F5000AC4B84331A607047AD4988667047AC4912
:101F6000C864704702460020A64B0833186820F06A
:101F7000EC6042EA01031843A24B08331860704733
:101F8000024600209F4B0833186820F0784042EA50
:101F9000010318439B4B083318607047014600202B
:101FA000984A0832106820F0030008431060704718
:101FB00094480830006800F00C007047014600208B
:101FC000904A0832106820F0F00008431060704713
:101FD000014600208B4A0832106820F4E050084384
:101FE0001060704701460020864A0832106820F4CD
:101FF000604040EAC10010607047F0B50021002247
:1020000000240225002602237E4F08373F6807F090
:102010000C0121B1042905D0082937D105E07E4FF4
:10202000076036E07D4F076033E0764F3F1D3F6825
:10203000C7F38056734F3F1D3F6807F03F036EB1F3
:10204000764FB7FBF3F7DFF8BCC10CF1040CDCF8FA
:1020500000C0CCF3881C07FB0CF40CE06E4FB7FB00
:10206000F3F7DFF8A0C10CF1040CDCF800C0CCF3EE
:10207000881C07FB0CF4634F3F1D3F68C7F3014703
:102080007F1C7D00B4FBF5F7076002E0624F07603C
:1020900000BF00BF5B4F08373F6807F0F001090938
:1020A0005F4F7A5C0768D7404760564F08373F68F4
:1020B00007F4E051890A5A4F7A5C4768D740876035
:1020C000504F08373F6807F46041490B544F7A5C22
:1020D0004768D740C760F0BD002100F44072B2F5F8
:1020E000407F0AD1474A0832116821F4F8114D4A5D
:1020F00002401143434A08321160424A703212686A
:10210000C0F30B031A433F4B70331A6070474149C9
:102110004439086070473F49403908607047424978
:102120000860704739B1374A303212680243354B84
:1021300030331A6006E0334A303212688243314B42
:1021400030331A60704739B12E4A34321268024374
:102150002C4B34331A6006E02A4A34321268824328
:10216000284B34331A60704739B1264A3832126826
:102170000243244B38331A6006E0224A3832126890
:102180008243204B38331A60704739B11D4A4032C0
:10219000126802431B4B40331A6006E0194A403272
:1021A00012688243174B40331A60704739B1154AA1
:1021B000443212680243134B44331A6006E0114A5A
:1021C0004432126882430F4B44331A60704739B16E
:1021D0000C4A1032126802430A4B10331A6006E0B0
:1021E000084A103212688243064B10331A60704757
:1021F000E1B1044A143212680243024B14331A60EC
:1022000019E0000000380240FFFFF6FE1030002405
:1022100000004742800E47420024F40000127A007A
:1022200024000020FFFCFF0F5C0147425B4A12685C
:1022300082435A4B1A60704739B1584A121D1268CE
:102240000243564B1B1D1A6006E0544A121D1268C9
:102250008243524B1B1D1A60704739B14F4A0C32F2
:10226000126802434D4B0C331A6006E04B4A0C32A5
:1022700012688243494B0C331A60704739B1474AA0
:10228000103212680243454B10331A6006E0434A8D
:10229000103212688243414B10331A60704739B1D3
:1022A0003E4A3C32126802433C4B3C331A6006E023
:1022B0003A4A3C3212688243384B3C331A607047CA
:1022C00039B1364A403212680243344B40331A6007
:1022D00006E0324A403212688243304B40331A6083
:1022E000704739B12D4A4432126802432B4B4433B4
:1022F0001A6006E0294A443212688243274B44336D
:102300001A60704739B1254A4C3212680243234B98
:102310004C331A6006E0214A4C32126882431F4B4C
:102320004C331A60704739B11C4A5032126802436C
:102330001A4B50331A6006E0184A50321268824332
:10234000164B50331A60704739B1144AD21F1278B5
:102350000243124BDB1F1A7006E0104AD21F12789C
:1023600082430E4BDB1F1A7070470C4860300068C8
:1023700040F08070094960310860704701460020D4
:10238000064A083A12680A4201D0012000E0002003
:1023900070470249891F08707047000014380240D6
:1023A00010B50446FE48844208D101210846FFF7D3
:1023B00065FF00210120FFF761FF9DE0B4F1804F30
:1023C00008D101210846FFF748FF00210120FFF74F
:1023D00044FF91E0F348844208D101210220FFF735
:1023E0003CFF00210220FFF738FF85E0EE488442E1
:1023F00008D101210420FFF730FF00210420FFF75E
:102400002CFF79E0E948844208D101210820FFF738
:1024100024FF00210820FFF720FF6DE0E4488442FC
:1024200008D101211020FFF718FF00211020FFF72D
:1024300014FF61E0DF48844208D101212020FFF72A
:102440000CFF00212020FFF708FF55E0DA48844206
:1024500008D101210220FFF711FF00210220FFF720
:102460000DFF49E0D548844209D101210804FFF756
:1024700005FF00214FF48030FFF700FF3CE0D0481B
:10248000844209D101214804FFF7F8FE00214FF4EE
:102490000030FFF7F3FE2FE0CA48844209D1012142
:1024A0008804FFF7EBFE00214FF48020FFF7E6FEE3
:1024B00022E0C548844208D101214020FFF7CDFE2B
:1024C00000214020FFF7C9FE16E0C048844208D131
:1024D00001218020FFF7C1FE00218020FFF7BDFE13
:1024E0000AE0BB48844207D101218015FFF7B5FE01
:1024F0000021A015FFF7B1FE10BD00220288A84BF5
:1025000098420ED0AC4B98420BD0B0F1804F08D01F
:10251000A44B984205D0A44B984202D0A34B9842BA
:1025200004D14FF68F731A404B881A43A04B984240
:1025300007D0A04B984204D04FF6FF431A400B89B6
:102540001A4302804B68C3620B880385944B984200
:1025500002D0994B984201D18B7A03860123838262
:1025600070474FF0FF3141600021018001814180BF
:10257000817270470185828270470A460021018876
:102580004FF68F73194011430180704741627047C5
:10259000C16270470146486A70470146088D70471E
:1025A00021B1028842F00202028004E002884FF664
:1025B000FD731A400280704721B1028842F0040284
:1025C000028004E002884FF6FB731A4002807047D5
:1025D00021B1028842F08002028004E002884FF6B6
:1025E0007F731A400280704702884FF6F7731A40D3
:1025F000028002880A430280704702884FF6FF4338
:102600001A40028002880A430280704721B1028882
:1026100042F00102028004E002884FF6FE731A4085
:102620000280704770B5002400220023058C4FF60D
:10263000FE7635400584028C8388048B4FF68F75B7
:102640002C40B51E2C400D882C43751E2A408D89C8
:102650002A434D882A43524DA84202D0564DA842E3
:1026600013D14FF6F7752A40CD892A434FF6FB75F3
:102670002A408D882A434FF6FF652B404FF6FF55C1
:102680002B400D8A2B434D8A2B43838004838D6816
:102690004563028470BD70B5002400220023058CC0
:1026A0004FF6EF7635400584028C8388048B48F61C
:1026B000FF752C404FF6FF452C400D884FF6FF76F6
:1026C00006EA05252C434FF6DF752A408D8906EA78
:1026D00005152A434D8806EA05152A43304DA842C0
:1026E00002D0354DA8421DD14FF67F752A40CD89C5
:1026F0004FF6FF7606EA05152A434FF6BF752A40C6
:102700008D8806EA05152A434FF6FF352B404FF218
:10271000FF752B400D8A06EA85052B434D8A06EA94
:1027200085052B43838004838D688563028470BD97
:1027300070B5002400220023058C4FF6FF6635405B
:102740000584028C8388848B4FF68F752C404FF65E
:10275000FC752C400D882C434FF6FF552A408D897F
:102760004FF6FF7606EA05252A434D8806EA052539
:102770002A430B4DA84202D00F4DA84238D14FF248
:10278000FF752A40CD894FF6FF7606EA05252A43D4
:102790004FF6FF352A408D8806EA05252A4319E0C1
:1027A000000001400004004000080040000C004010
:1027B00000100040001400400004014000400140AF
:1027C000004401400048014000180040001C004047
:1027D000002000404EF6FF752B404DF6FF752B4054
:1027E0000D8A06EA05152B434D8A06EA05152B438B
:1027F000838084838D68C563028470BD70B50022B8
:1028000000230024058C4EF6FF7635400584038CAA
:102810008488828B48F6FF752A404FF6FF452A4090
:102820000D884FF6FF7606EA05252A434DF6FF751B
:102830002B408D8906EA05352B434D8806EA053580
:102840002B43FE4DA84202D0FD4DA84208D14BF6C5
:10285000FF752C400D8A4FF6FF7606EA85152C434E
:10286000848082838D680564038470BD00210180AB
:102870004180818081608181C18101824182704774
:1028800070B50346002000241846183001258D40FD
:10289000ACB21D8CA5431D8409B108290AD100EBF7
:1028A000610005684FF68F76354005600568154371
:1028B00005600FE00D1FC5F34E052844056848F676
:1028C000FF763540056005684FF6FF7606EA02267A
:1028D0003543056070BD4163704781637047C163D4
:1028E0007047016470470A460021018B4FF68F73D1
:1028F00019401143018370470A460021018B48F6B5
:10290000FF7319404FF6FF7303EA02231943018353
:1029100070470A460021818B4FF68F73194011438F
:10292000818370470A460021818B48F6FF73194066
:102930004FF6FF7303EA02231943818370470A4667
:102940000021018B4FF6F773194011430183704743
:102950000A460021018B4FF2FF7319404FF6FF73B7
:1029600003EA02231943018370470A460021818B41
:102970004FF6F77319401143818370470A460021CF
:10298000818B4FF2FF7319404FF6FF7303EA022366
:102990001943818370470A460021018B4FF6FB7370
:1029A00019401143018370470A460021018B4FF6FD
:1029B000FF3319404FF6FF7303EA022319430183E3
:1029C00070470A460021818B4FF6FB731940114373
:1029D000818370470A460021818B4FF6FF331940EF
:1029E0004FF6FF7303EA02231943818370470A46B7
:1029F0000021018B4FF67F7319401143018370470B
:102A00000A460021018BC1F30E014FF6FF7303EA62
:102A100002231943018370470A460021818B4FF638
:102A20007F7319401143818370470A460021818BCF
:102A3000C1F30E014FF6FF7303EA022319438183AA
:102A400070470A460021018C4FF6FD73194011436F
:102A5000018470470A460021018C4FF6F773194034
:102A60001143018470470A460021018C4FF6DF7341
:102A700019404FF6FF7303EA0213194301847047AC
:102A80000A460021018C4FF67F7319404FF6FF7301
:102A900003EA02131943018470470A460021018C9E
:102AA0004FF6FF5319404FF6FF7303EA0223194311
:102AB000018470470A460021018C4FF2FF731940D0
:102AC0004FF6FF7303EA02231943018470470A4655
:102AD0000021018C4DF6FF7319404FF6FF7303EA96
:102AE000023319430184704730B5002301248C4020
:102AF000A3B2048C9C430484048C02FA01F5ADB2A9
:102B00002C43048430BD30B5002304248C40A3B290
:102B1000048C9C430484048C02FA01F5ADB22C436E
:102B2000048430BD828B4FF2FF331A408283828B44
:102B30004FF6FF7303EA01231A4382837047F0B50F
:102B40000C461546002100220026078C4EF6FF7C1D
:102B500007EA0C070784818B028C4FF6FF7707EAA0
:102B6000043640F6FF4739404FF6FF7707EA05275E
:102B700039434FF6FF7707EA0337394345F6FF77C6
:102B80003A4046F480573A4381830284F0BD828BF9
:102B90004FF6F3731A408283828B0A438283704715
:102BA000F0B50C461546002100220026078C4FF692
:102BB000FF6C07EA0C070784818B028C4FF6FF77C6
:102BC00007EA04264FF60C7739404FF6FF7707EAFD
:102BD00003172F4339434FF2FF573A4046F48077AB
:102BE0003A4381830284F0BD028B4FF2FF331A40D7
:102BF0000283028B4FF6FF7303EA01231A43028319
:102C00007047F0B50C461546002100220026078CBF
:102C10004FF6EF7C07EA0C070784018B028C4FF616
:102C2000FF7707EA041640F6FF4739404FF6FF7773
:102C300007EA033739434FF6FF7703E0000001400E
:102C40000004014007EA052739434FF65F773A4011
:102C500046F010073A4301830284F0BD028B4FF621
:102C6000F3731A400283028B0A4302837047F0B564
:102C70000C46154600210022068C4FF6FE773E409A
:102C80000684018B028C4FF60C7631407E1C06EADE
:102C900003162E4331434FF6F576324044F00106D9
:102CA000324301830284F0BD70B505460C4620888E
:102CB00050B92389A28861882846FFF7D8FFE188A8
:102CC0002846FFF7CBFF25E0208804280AD1238976
:102CD000A28861882846FFF794FFE1882846FFF71D
:102CE00083FF17E0208808280AD12389A2886188F9
:102CF0002846FFF755FFE1882846FFF748FF09E01F
:102D00002389A28861882846FFF719FFE1882846B1
:102D1000FFF708FF70BD0021018041800121818003
:102D20000021C180018170472DE9F04105460C4624
:102D300000260127608808B9022600E00026A08846
:102D4000012801D1022700E001272088A0B92389AA
:102D5000A28861882846FFF78AFFE1882846FFF7A6
:102D60007DFF23893A4631462846FFF74AFFE1882E
:102D70002846FFF739FF13E02389A2886188284697
:102D8000FFF73FFFE1882846FFF72EFF23893A46E9
:102D900031462846FFF76BFFE1882846FFF75EFFC4
:102DA000BDE8F0810146486B70470146886B70476B
:102DB0000146C86B70470146086C70470A884B880B
:102DC0001A438B881A43CB881A430B891A434B89C1
:102DD0001A438B891A43A0F84420704700210180D0
:102DE00041808180C180018141818181704731B101
:102DF000B0F8442042F40042A0F8442005E0B0F8C6
:102E00004420C2F30E02A0F84420704721B182880A
:102E100042F00402828004E082884FF6FB731A407D
:102E20008280704721B1828842F00102828004E0F2
:102E300082884FF6FE731A40828070471AB18389E8
:102E40000B43838102E083898B43838170478182B6
:102E5000704702460020138A0B4201D0012000E097
:102E600000207047CA430282704730B502460020F6
:102E700000230024158A05EA0103958905EA010467
:102E800013B10CB1012000E0002030BDCA43028222
:102E9000704741EA0203A0F8483070471AB18389AD
:102EA0000B43838102E083898B438381704721B187
:102EB000828842F00802828004E082884FF6F7732D
:102EC0001A408280704701894FF6F87211400181E3
:102ED00070470A46002101894FF68F73194011434C
:102EE0000181704730B504460D4629462046FFF75C
:102EF000F0FF208940F00700208130BD2DE9F0412E
:102F000004460D4616461F46602D06D13B4601225B
:102F100031462046FFF775FE05E03B46012231466B
:102F20002046FFF7A4FE29462046FFF7D2FF20895E
:102F300040F007002081BDE8F08130B50C4600214B
:102F40000189C9B24FF6FF7505EA032515432543EC
:102F50002943018130BD2DE9F04105460E46174653
:102F60009846002443463A4631462846FFF7E5FF97
:102F70002C894FF6F870044044F007044FF68F7028
:102F8000044044F070042C81BDE8F081F0B50446A3
:102F90000D4616461F463B46324629462046FFF759
:102FA000CCFF208940F480402081F0BD82884FF61C
:102FB0008F731A40828082880A4382807047028918
:102FC0004FF6F8731A40028102890A430281704762
:102FD00002894FF67F731A40028102890A430281F7
:102FE0007047F0B50C4615461E460021002200230E
:102FF0000189028B038C4FF6F877394021434FF655
:10300000FC473A4040F201173A434FF6DD773B4028
:103010004FF6FF7707EA06172F433B4301810283F0
:103020000384F0BD21B1828842F08002828004E0F6
:1030300082884FF67F731A4082807047A0F8501044
:103040007047000010B50446F748844208D10121BA
:103050001020FFF713F900211020FFF70FF93EE0D1
:10306000F248844209D101214804FFF7F6F8002113
:103070004FF40030FFF7F1F831E0ED48844209D118
:1030800001218804FFF7E9F800214FF48020FFF7C1
:10309000E4F824E0E748844209D10121C804FFF79D
:1030A000DCF800214FF40020FFF7D7F817E0E248E2
:1030B000844209D101210805FFF7CFF800214FF420
:1030C0008010FFF7CAF80AE0DC48844207D10121EA
:1030D0002020FFF7D3F800212020FFF7CFF810BD04
:1030E0002DE9FF4705460E460024A14600BFA04635
:1030F000B08900B100BF2C8A24F44054F088044306
:103100002C82AC8941F20C608443B0883189084339
:10311000718908430443AC81AC8A24F44074B089BB
:103120000443AC826846FEF768FFBF48854202D080
:10313000C248854202D1DDF80C9001E0DDF808902C
:10314000A88910F4004F08D009EBC90000EB091062
:1031500031684900B0FBF1F707E009EBC90000EB6B
:10316000091031688900B0FBF1F76420B7FBF0F07B
:1031700004012009642101FB1078A88910F4004F94
:1031800008D0322000EBC800B0FBF1F000F00700DF
:10319000044308E0322000EB08106421B0FBF1F09A
:1031A00000F00F0004432C81BDE8FF874FF4165157
:1031B000016000218180C18001810C2141810021B9
:1031C0008181704710B502460020108A20F470609B
:1031D0000B884C8823438C882343CC882343184393
:1031E000108210BD0021018041808180C180704724
:1031F00021B1828942F40052828104E082894DF635
:10320000FF731A4082817047028B02F47F4202836F
:10321000028B0A430283704721B1828942F4004243
:10322000828103E08289C2F30E028281704721B15C
:10323000828A42F40062828204E0828A4FF2FF7343
:103240001A4082827047C1F30802828070470146AB
:103250008888C0F308007047028A4FF6F0731A405E
:103260000282028A0A430282704721B1828942F0B7
:103270000202828104E082894FF6FD731A40828146
:10328000704782894FF2FF731A40828182890A4314
:1032900082817047028A4FF6DF731A400282028AE7
:1032A0000A430282704721B1028A42F480420282BC
:1032B00004E0028A4BF6FF731A400282704781894C
:1032C00041F001018181704721B1828A42F00802F8
:1032D000828204E0828A4FF6F7731A408282704736
:1032E000028BD2B20283028B42EA01220283704730
:1032F00021B1828A42F02002828204E0828A4FF663
:10330000DF731A408282704721B1828A42F0100234
:10331000828204E0828A4FF6EF731A4082827047FD
:10332000828A4FF6FB731A408282828A0A43828223
:10333000704721B1828A42F00202828204E0828ACE
:103340004FF6FD731A40828270471AB1838A0B438D
:10335000838202E0838A8B4383827047F0B5034601
:103360000024002600250020A1F510676A3F00D147
:1033700000BF1846C1F3421401F01F06012707FAE7
:1033800006F5012C01D10C3004E0022C01D11030E3
:1033900000E014301AB107682F43076002E00768A5
:1033A000AF430760F0BD02460020B1F5007F00D1B9
:1033B00000BF13880B4201D0012000E000207047BD
:1033C00001F40072B2F5007F00D100BFCA43028051
:1033D000704770B502460024002300250020A1F5A7
:1033E00010666A3E00D100BFC1F3421501F01F0311
:1033F000012606FA03F3012D02D19689334006E037
:10340000022D02D1168A334001E0968A33400C1215
:10341000012606FA04F41688344013B10CB10120D9
:1034200000E0002070BD000000100140004400409A
:1034300000480040004C0040005000400014014093
:1034400010B500220023A1F510646A3C00D100BF32
:103450000A1201249440A3B2DC43048010BD000092
:103460000CB50020019000907248006840F4803054
:103470007049086000BF6F48006800F40030009099
:103480000198401C0190009818B90198B0F5A06F00
:10349000F1D16848006810F4003F02D0012000908C
:1034A00001E0002000900098012845D1614840309B
:1034B000006840F080505F49403108605E48006815
:1034C00040F480405C4908605A4808300068594917
:1034D000083108600846006840F40040086008466B
:1034E000006840F4A05008605448091F0860081F95
:1034F000006840F08070091F086000BF4D480068F8
:1035000010F0007FFAD040F205604D49086049484C
:103510000830006820F0030046490831086008467A
:10352000006840F00200086000BF424808300068B0
:1035300000F00C000828F8D10CBD10B53D4800681B
:1035400040F001003B49086000203A49083108601A
:10355000384800683B490840364908603A48091D28
:103560000860081F006820F48020091F0860002000
:1035700030490C310860FFF773FF4FF000603349AA
:10358000086010BD70B50020002202230024022133
:10359000284D08352D6805F00C0020B1042806D010
:1035A000082834D107E02A4D2A4E356033E02A4DF1
:1035B000284E35602FE01F4D2D1D2D68C5F380541A
:1035C0001C4D2D1D2D6805F03F0154B1224DB5FB5A
:1035D000F1F5184E361D3668C6F3881605FB06F25F
:1035E00009E01B4DB5FBF1F5124E361D3668C6F3EA
:1035F000881605FB06F20F4D2D1D2D68C5F30145FC
:103600006D1C6B00B2FBF3F5124E356003E0104DFC
:10361000104E356000BF00BF064D08352D68C5F35C
:1036200003150E4E705D0B4D2D68C540094E35607B
:1036300070BD000000380240007000400854400790
:10364000003C0240FFFFF6FE1030002408ED00E0D1
:103650000024F4003400002000127A00380000201A
:1036600000B589B007A8FEF75FFB4FF440700790E4
:1036700003208DF8210002208DF8200001208DF814
:1036800022008DF8230007A95C48FEF705FB4FF4E4
:103690004050079007A95A48FEF7FEFA0122082178
:1036A0005648FEF784FB012209215448FEF77FFBB0
:1036B00002220C215248FEF77AFB02220D215048CB
:1036C000FEF775FB4F48FEF76BFE04A94D48FEF769
:1036D00014FF4FF6FF7005900020ADF81000ADF814
:1036E0001800ADF8120004A94648FEF706FF0023B3
:1036F0001A4603214348FFF774FC01A8FFF70BFBB0
:103700000620ADF80C0001A93E48FFF7CDFA0121D3
:103710003C48FFF7A7FB44F620603A492431086093
:1037200001213848FEF772FF3748FEF739FE04A939
:103730003548FEF7E2FE4FF6FF7005900020ADF829
:103740001000ADF81800ADF8120004A92E48FEF7DD
:10375000D4FE00231A4603212B48FFF742FC01A8A0
:10376000FFF7D9FA0620ADF80C0001A92648FFF7AB
:103770009BFA01212448FFF775FB44F6206022499B
:10378000486201212048FEF741FF09B000BD1FB586
:1037900001210220FEF7F9FC0020ADF80C00ADF885
:1037A000060042F210700290A820ADF8040000203C
:1037B0008DF80E0001A91548FEF79FFE01A91348D8
:1037C000FEF79BFE01211148FFF74CFB0122114639
:1037D0000E48FFF733FB01210C48FEF717FF1D20B1
:1037E0008DF8000000208DF8010001208DF8020006
:1037F0008DF803006846FDF75CFA1FBD000002402B
:10380000000C02400008004000000140000400409D
:10381000F84908807047F749891C08807047F548C7
:10382000801C00887047F34A1080921C11807047FA
:1038300010B504462046FFF7EBFF052002F078FAAA
:10384000FFF7EDFF10BDEC48C079EA4908807047EA
:10385000E849891C0880704730B5014601F01F0413
:10386000C1F34513CA0AE50205EB43151544A8B296
:1038700030BD00BF0100A0F10102D0B2FAD1704703
:1038800010B503460C46DC488088A0F51341413949
:1038900005D0D9488088A0F5D041043914D1D64943
:1038A000087AFFF7B5FF1812FFF7B5FFD8B2FFF798
:1038B000B2FFD149487AFFF7ABFF2012FFF7ABFF09
:1038C000E0B2FFF7A8FF12E0CB488079012804D1CD
:1038D000C9480088401EC01A83B2C749087A1946F1
:1038E000FFF7A1FFC449487A2146FFF79CFF10BDAE
:1038F0002DE9F04105460E4600240027A046BE48AB
:103900000088A84203DDBC484088B04202DC0020A9
:10391000BDE8F08131462846FFF7B2FFB6488088FF
:10392000A0F51341413905D0B3488088A0F5D041B6
:10393000043903D12E20FFF76BFF02E02220FFF7AE
:1039400067FFAD488088A0F51341203902D10220DD
:10395000FFF78FFFA748801C008800B100240220D9
:10396000FFF787FFA348801C0488A3488088A0F540
:10397000134141390CD10220FFF77BFF9D48801C89
:10398000B0F80080E7B24FF6FF7000EA072708E0C2
:1039900099488088A0F5D041043902D19548801C0F
:1039A000048895488088A0F51341253917D092489E
:1039B0008088A0F58A41353911D08F488088A0F5DC
:1039C0008A4131390BD08C488088A0F5094189396A
:1039D00005D089488088A0F53541053901D12046B8
:1039E00096E785488088A0F51341413907D1E01258
:1039F000C002B91240EA411040EAE82088E72046B8
:103A0000FFF72AFF84E700B57B488088A0F51341C3
:103A1000413905D078488088A0F5D041043903D1D8
:103A20002920FFF7F5FE04E040F273110720FFF7AD
:103A3000FAFE00BD00B570488088A0F513414139F9
:103A400005D06D488088A0F5D041043903D12820E5
:103A5000FFF7DEFE03E000210720FFF7E4FE00BDD4
:103A6000F0B50546002400276348807901281ED15F
:103A700061488088A0F5D041043918D0082D15D2AE
:103A8000DFE805F00406080A0C0E101206250DE00A
:103A900007250BE0042509E0052507E0012505E0E1
:103AA000002503E0032501E0022500BF00BF5248C6
:103AB0008088A0F51341413905D04F488088A0F592
:103AC000D04104397CD1082D1CD2DFE805F0040672
:103AD000090C0F12151800BF14E044F0800411E027
:103AE00044F040040EE044F0C0040BE044F0200435
:103AF00008E044F0600405E044F0A00402E044F073
:103B0000E00400BF00BF362744F008043A4880882C
:103B1000A0F5D041043901D144F0020421463846D1
:103B2000FFF781FE14F0200F0DD033480088324992
:103B30004988884214DA3048068840882E4908802F
:103B4000084646800CE02C4800882B49498888426A
:103B500006DD2948068840882749088008464680AF
:103B60002549087AFFF754FE0020FFF754FE002095
:103B7000FFF751FE20490988491EC1F30F20FFF7C6
:103B80004AFE1D490978491EC8B2FFF744FE1A498A
:103B9000487AFFF73DFE0020FFF73DFE0020FFF7CB
:103BA0003AFE15494988491EC1F30F20FFF733FE3D
:103BB00011498978491EC8B2FFF72DFE37E0FFE7AB
:103BC000082D21D2DFE805F004070A0D0F121A1D97
:103BD00044F0300418E044F0100415E044F02004F0
:103BE00012E000BF10E044F038040DE044F0280477
:103BF0000AE00000FEFF0F606000002044F018049F
:103C000002E044F0080400BF00BFFE488088A0F531
:103C10000941893904D1112746F24000044302E0EA
:103C2000032744F4805421463846FFF7FCFDF0BDDD
:103C300030B504460D4629462046FFF721FEFFF722
:103C400002FEF1480088F149088030BD30B50346D6
:103C50000C461546EB488088A0F51341413905D044
:103C6000E8488088A0F5D041043914D1E549087AA4
:103C7000FFF7CEFD1812FFF7CEFDD8B2FFF7CBFD50
:103C8000E049487AFFF7C4FD2012FFF7C4FDE0B217
:103C9000FFF7C1FD12E0DB488079012804D1D94843
:103CA0000088401EC01A83B2D649087A1946FFF729
:103CB000BAFDD449487A2146FFF7B5FDD148C0790D
:103CC000D249891E0880881C058030BD10B5044685
:103CD000002C3DD1CB498871F02008804FF4A070B2
:103CE000488008468088A0F51341413905D0C54871
:103CF0008088A0F5D041043914D12C20C149C87165
:103D00002A2008722B20487208468088A0F5D041EE
:103D100004394ED14FF4A070BA4908804FF4F070C6
:103D2000488046E0B7488088A0F50941893907D125
:103D30002220B449C8714E2008724F20487238E0E2
:103D40002220B049C871202008722120487230E03A
:103D5000AC488088A0F5D04104392AD00120A94977
:103D600088714FF4A0700880F02048800846808851
:103D7000A0F51341413907D12C20A249C8712A204E
:103D800008722B20487214E09E488088A0F50941F3
:103D9000893907D122209B49C8714F2008724E20D3
:103DA000487206E022209749C8712120087220201D
:103DB00048720020FFF754FE10BD70B5044600267F
:103DC000904805884088454300210846FFF758FD84
:103DD000FFF739FD00BF02E08C480480761CAE423C
:103DE000FAD370BD00B59FB001210846FEF7BCF9BB
:103DF00001211A20FEF796F901208DF878000320A2
:103E00008DF8790000208DF87A0004201D900020A4
:103E10008DF87B001DA97E48FDF73EFF03208DF83D
:103E2000790002208DF878004CF203701D901DA9D6
:103E30007848FDF731FF4FF680701D901DA974483A
:103E4000FDF72AFF10201D901DA97248FDF724FFE1
:103E500020201D901DA96F48FDF71EFF80201D909A
:103E60001DA96C48FDF718FF08201D901DA9684882
:103E7000FDF712FF0C2200216648FDF798FF0C2287
:103E800001216448FDF793FF0C2204216148FDF7EE
:103E90008EFF0C2205215F48FDF789FF0C220721C8
:103EA0005C48FDF784FF0C2208215A48FDF77FFF8C
:103EB0000C2209215748FDF77AFF0C220A215548A8
:103EC000FDF775FF0C2203215148FDF770FF0C220E
:103ED0000E215048FDF76BFF0C220F214D48FDF7D6
:103EE00066FF0C2207214A48FDF761FF0C220821DA
:103EF0004748FDF75CFF0C2209214548FDF757FFB5
:103F00000C220A214248FDF752FF0C220B214048A7
:103F1000FDF74DFF0C2211463D48FDF748FF0C22EE
:103F20000D213B48FDF743FF0C220E213848FDF7D9
:103F30003EFF0C220F213648FDF739FF0520079080
:103F4000002008900920099000200A900B900C9006
:103F50000D90052000900020019009200290002083
:103F6000039004900590069000210846FDF7DDFBC4
:103F700000200E900F9010901020119000201290B1
:103F800014901390159016904FF4805017900020C5
:103F900018904FF48040199000201A9007A81B90A9
:103FA000CDF870D00EA8FDF717FB01210020FDF71A
:103FB000BCFB10211748FDF7EBFE20211548FDF74B
:103FC000E7FE80211348FDF7E3FE322001F0BAFE40
:103FD00001210020FFF727FC322001F0B3FE002072
:103FE000FFF726FC0749888008468088FF2816DBF3
:103FF00008468088A0F57F41FF3910D001488088AD
:104000000AE000006000002048000020000010606E
:1040100000100240000C0240B0F5134F4BD1D320EA
:10402000FFF7F6FBFFF7FBFBFFF7F9FBFFF7F7FBEB
:10403000FE498880084680884FF6FF7101EA00201B
:10404000FA498880FFF7EBFBF84989880843F7496C
:10405000888008468088A0F5134141391BD0BF20D5
:10406000FFF7D6FBFFF7DBFBFFF7D9FBFFF7D7FB2B
:10407000FFF7D5FBED498880084680884FF6FF7131
:1040800001EA0020E9498880FFF7C9FBE7498988F0
:104090000843E6498880E5488088A0F51341413906
:1040A00009D0E2488088A0F5D041043903D049F214
:1040B0004130DE498880DD488188DDA002F042FD84
:1040C000DA488088A0F5134141397CD1CF20FFF731
:1040D0009FFB0020FFF79FFBC120FFF79CFB3020D8
:1040E000FFF799FBED20FFF793FB6420FFF793FBAD
:1040F0000320FFF790FB1220FFF78DFB8120FFF7D5
:104100008AFBE820FFF784FB8520FFF784FB102063
:10411000FFF781FB7A20FFF77EFBCB20FFF778FBD0
:104120003920FFF778FB2C20FFF775FB0020FFF705
:1041300072FB3420FFF76FFB0220FFF76CFBF720C8
:10414000FFF766FB2020FFF766FBEA20FFF760FB26
:104150000020FFF760FB0020FFF75DFBC020FFF7AA
:1041600057FB1B20FFF757FBC120FFF751FB012036
:10417000FFF751FBC520FFF74BFB3020FFF74BFB50
:104180003020FFF748FBC720FFF742FBB720FFF7BF
:1041900042FB3620FFF73CFB4820FFF73CFB3A2070
:1041A000FFF736FB5520FFF736FBB120FFF730FB5A
:1041B0000020FFF730FB1A20FFF72DFBB620FFF79A
:1041C00027FB0A2000E099E0FFF725FBA220FFF77C
:1041D00022FBF220FFF71CFB0020FFF71CFB262030
:1041E000FFF716FB0120FFF716FBE020FFF710FB9F
:1041F0000F20FFF710FB2A20FFF70DFB2820FFF709
:104200000AFB0820FFF707FB0E20FFF704FB08203E
:10421000FFF701FB5420FFF7FEFAA920FFF7FBFA96
:104220004320FFF7F8FA0A20FFF7F5FA0F20FFF70F
:10423000F2FA0020FFF7EFFA0020FFF7ECFA002077
:10424000FFF7E9FA0020FFF7E6FAE120FFF7E0FACE
:104250000020FFF7E0FA1520FFF7DDFA1720FFF73F
:10426000DAFA0720FFF7D7FA1120FFF7D4FA062071
:10427000FFF7D1FA2B20FFF7CEFA5620FFF7CBFA43
:104280003C20FFF7C8FA0520FFF7C5FA1020FFF71A
:10429000C2FA0F20FFF7BFFA3F20FFF7BCFA3F201A
:1042A000FFF7B9FA0F20FFF7B6FA2B20FFF7B0FAA5
:1042B0000020FFF7B0FA0020FFF7ADFA0120FFF76A
:1042C000AAFA3F20FFF7A7FA2A20FFF7A1FA002059
:1042D000FFF7A1FA0020FFF79EFA0020FFF79BFAF4
:1042E000EF20FFF798FA1120FFF792FA782001F0FB
:1042F00029FD2920FFF78CFA01F018BA4B48808875
:10430000A0F5D04104397CD11120FFF781FA1420A7
:1043100001F018FDD020FFF77BFA0720FFF77BFAAA
:104320004220FFF778FA1D20FFF775FAD120FFF73A
:104330006FFA0020FFF76FFA1A20FFF76CFA0920D6
:10434000FFF769FAD220FFF763FA0120FFF763FA5B
:104350002220FFF760FAC020FFF75AFA1020FFF77B
:104360005AFA3B20FFF757FA0020FFF754FA0220D1
:10437000FFF751FA1120FFF74EFAC520FFF748FA70
:104380000320FFF748FAC820FFF742FA0020FFF7A2
:1043900042FA2520FFF73FFA2120FFF73CFA0520DB
:1043A000FFF739FA0020FFF736FA0A20FFF733FA51
:1043B0006520FFF730FA2520FFF72DFA7720FFF769
:1043C0002AFA5020FFF727FA0F20FFF724FA0020DF
:1043D000FFF721FAF820FFF71BFA0120FFF71BFA7D
:1043E000FE20FFF715FA0020FFF715FA0220FFF76D
:1043F00012FA2020FFF70CFA3620FFF709FA0820FE
:1044000000E038E0FFF707FA3A20FFF701FA5520FD
:10441000FFF701FA2B20FFF7FBF90020FFF7FBF96C
:104420000020FFF7F8F901200AE0000060000020FA
:10443000204C43442049443A25780D0A00000000EE
:10444000FFF7E9F93F20FFF7E6F92A20FFF7E0F947
:104450000020FFF7E0F90020FFF7DDF90120FFF76A
:10446000DAF9DF20FFF7D7F9782001F06BFC29207B
:10447000FFF7CEF940E7FE488088A0F513412539C3
:104480007ED147F6F001E520FFF7CDF94FF48071BA
:104490000120FFF7C8F94FF4E0610220FFF7C3F9EC
:1044A00041F230010320FFF7BEF900210420FFF79D
:1044B000BAF940F202210820FFF7B5F900210920DE
:1044C000FFF7B1F900210A20FFF7ADF900210C2018
:1044D000FFF7A9F900210D20FFF7A5F900210F2012
:1044E000FFF7A1F900211020FFF79DF90721112006
:1044F000FFF799F900211220FFF795F90021132009
:10450000FFF791F900210720FFF78DF941F2906143
:104510001020FFF788F940F227211120FFF783F9D7
:104520009D211220FFF77FF94FF4C8511320FFF7A8
:104530007AF925212920FFF776F90D212B20FFF7A5
:1045400072F907213020FFF76EF940F20331312074
:10455000FFF769F903213220FFF765F940F20621E0
:104560003520FFF760F908213620FFF75CF940F2AB
:1045700006413720FFF757F94FF44171382000E02A
:1045800057E0FFF750F907213920FFF74CF940F2C7
:1045900002613C20FFF747F908213D20FFF743F96E
:1045A00000215020FFF73FF9EF215120FFF73BF9A1
:1045B00000215220FFF737F940F23F115320FFF757
:1045C00032F94FF427416020FFF72DF901216120D6
:1045D000FFF729F900216A20FFF725F90021802043
:1045E000FFF721F900218120FFF71DF9002182202A
:1045F000FFF719F900218320FFF715F90021842026
:10460000FFF711F900218520FFF70DF91021902007
:10461000FFF709F94FF4C0619220FFF704F940F267
:1046200033110720FFF7FFF822210020FFF7FBF8E6
:1046300062E68F488088A0F5134128397ED141F287
:104640008F01EC20FFF7EFF841F23421EF20FFF764
:10465000EAF84FF480710120FFF7E5F84FF4E061CC
:104660000220FFF7E0F841F230010320FFF7DBF80A
:1046700000210420FFF7D7F840F202210820FFF7BD
:10468000D2F800210920FFF7CEF800210A20FFF719
:10469000CAF801210C20FFF7C6F800210D20FFF712
:1046A000C2F800210F20FFF7BEF800211020FFF70D
:1046B000BAF807211120FFF7B6F800211220FFF702
:1046C000B2F800211320FFF7AEF801210720FFF711
:1046D000AAF8322001F036FB41F290411020FFF79A
:1046E000A2F840F227211120FFF79DF8322001F0B7
:1046F00029FB8A211220FFF796F8322001F022FBD5
:104700004FF4D0511320FFF78EF806212920FFF730
:104710008AF80D212B20FFF786F8322001F012FBDA
:1047200000212020FFF77FF800212120FFF77BF8F0
:10473000322001F007FB0021302000E074E0FFF799
:1047400072F840F204613120FFF76DF840F2053154
:104750003220FFF768F800213520FFF764F840F6B3
:1047600009413620FFF75FF84FF401713720FFF75A
:104770005AF840F201313820FFF755F840F207713E
:104780003920FFF750F800213C20FFF74CF840F6A5
:104790000A213D20FFF747F8322001F0D3FA00212B
:1047A0005020FFF740F8EF215120FFF73CF800219F
:1047B0005220FFF738F840F23F115320FFF733F84B
:1047C0004FF427416020FFF72EF801216120FFF709
:1047D0002AF800216A20FFF726F800218020FFF741
:1047E00022F800218120FFF71EF800218220FFF728
:1047F0001AF800218320FFF716F800218420FFF724
:1048000012F800218520FFF70EF810219020FFF705
:104810000AF84FF4C0619220FFF705F840F2331117
:104820000720FFF700F867E511488088A0F51341DD
:1048300020397DD10846FEF7F6FF4FF48071012044
:10484000FEF7F1FF4FF4E0610220FEF7ECFF41F2CA
:1048500030010320FEF7E7FF00210420FEF7E3FF0D
:1048600040F202210820FEF7DEFF0021092001E0CE
:1048700060000020FEF7D7FF00210A20FEF7D3FFDB
:1048800001210C20FEF7CFFF00210D20FEF7CBFF0A
:1048900000210F20FEF7C7FF322001F053FA40F24B
:1048A00001110720FEF7BFFF322001F04BFA4FF451
:1048B00086511020FEF7B7FF07211120FEF7B3FF46
:1048C0004FF488711220FEF7AEFF4FF430611320D1
:1048D000FEF7A9FF00212920FEF7A5FF44F21001F1
:1048E0002B20FEF7A0FF00215020FEF79CFFEF21B8
:1048F0005120FEF798FF00215220FEF794FF40F26E
:104900003F115320FEF78FFF4FF41C516020FEF73C
:104910008AFF01216120FEF786FF00216A20FEF751
:1049200082FF00218020FEF77EFF0021812000E031
:1049300030E0FEF778FF00218220FEF774FF0021AF
:104940008320FEF770FF00218420FEF76CFF00211A
:104950008520FEF768FF10219020FEF764FF0021FC
:104960009220FEF760FF01219320FEF75CFF4FF4D9
:1049700088719520FEF757FF00219720FEF753FF1F
:1049800000219820FEF74FFF40F273110720FEF739
:104990004AFFB1E4FE488088A0F5134131397DD14A
:1049A00041F21401E720FEF73EFF4FF48071012031
:1049B000FEF739FF4FF400710220FEF734FF41F299
:1049C00038010320FEF72FFF40F202210820FEF7F6
:1049D0002AFF00210920FEF726FF00210A20FEF70A
:1049E00022FF00210C20FEF71EFF00210D20FEF704
:1049F0001AFF00210F20FEF716FF00211020FEF7FE
:104A000012FF07211120FEF70EFF00211220FEF7F2
:104A10000AFF00211320FEF706FFC82001F092F9DB
:104A200041F290611020FEF7FEFE40F22721112096
:104A3000FEF7F9FE322001F085F90C211220FEF775
:104A4000F2FE322001F07EF94FF400611320FEF7F0
:104A5000EAFE11212920FEF7E6FE0B212B20FEF7AE
:104A6000E2FE322001F06EF900212020FEF7DBFE8D
:104A700040F23F112120FEF7D6FE00213020FEF744
:104A8000D2FE4FF483713120FEF7CDFE002132209B
:104A9000FEF7C9FE4FF40171352000E064E0FEF737
:104AA000C2FE41F20A613620FEF7BDFE40F20771F8
:104AB0003720FEF7B8FE4FF483713820FEF7B3FEBF
:104AC00040F207713920FEF7AEFE40F202413C2071
:104AD000FEF7A9FE40F60F413D20FEF7A4FE00219F
:104AE0005020FEF7A0FEEF215120FEF79CFE002192
:104AF0005220FEF798FE40F23F115320FEF793FE3E
:104B00004FF41C516020FEF78EFE01216120FEF75C
:104B10008AFE00216A20FEF786FE00218020FEF733
:104B200082FE00218120FEF77EFE00218220FEF71A
:104B30007AFE00218320FEF776FE00218420FEF716
:104B400072FE00218520FEF76EFE10219020FEF7F8
:104B50006AFE4FF4C0619220FEF765FE40F2331109
:104B60000720FEF760FE85E489488088A0F5A8410B
:104B700008397DD14FF480710120FEF754FE4FF4C7
:104B8000E0610220FEF74FFE41F230010320FEF704
:104B90004AFE00210420FEF746FE40F207210820CD
:104BA000FEF741FE00210920FEF73DFE00210A200C
:104BB000FEF739FE00210C20FEF735FE00210D2006
:104BC000FEF731FE00210F20FEF72DFE142001F02C
:104BD000B9F841F2B0611020FEF725FE0121112045
:104BE000FEF721FE01211720FEF71DFE4FF49C71F8
:104BF0001220FEF718FE4FF400611320FEF713FE9B
:104C000009212920FEF70FFE09212A20FEF70BFEBD
:104C10000021A420FEF707FE00215020FEF703FE2E
:104C2000EF215120FEF7FFFD00215220FEF7FBFD92
:104C300040F23F115320FEF7F6FD4FF41C51602067
:104C4000FEF7F1FD01216120FEF7EDFD00216A2054
:104C5000FEF7E9FD00218020FEF7E5FD002181201F
:104C6000FEF7E1FD00218220FEF7DDFD002100E0DE
:104C700024E08320FEF7D7FD00218420FEF7D3FD3A
:104C800000218520FEF7CFFD13219020FEF7CBFDFC
:104C900000219220FEF7C7FD03219320FEF7C3FDFC
:104CA0004FF488719520FEF7BEFD40F27311072086
:104CB000FEF7B9FD322001F045F8B9E434488088A8
:104CC000A0F5A851053965D10720FEF7ACFD3220CB
:104CD00001F038F84FF48E711220FEF7A4FD012187
:104CE000A420FEF7A0FD0F210820FEF79CFD08215F
:104CF0000A20FEF798FD08210D20FEF794FD40F2F2
:104D000007713020FEF78FFD07213120FEF78BFD64
:104D100040F203613220FEF786FD4FF4E06133205C
:104D2000FEF781FD40F202213420FEF77CFD0221D6
:104D30003520FEF778FD41F60F713620FEF773FD42
:104D400040F207713720FEF76EFD00213820FEF794
:104D50006AFD00213920FEF766FD40F207713A2016
:104D6000FEF761FD00213B20FEF75DFD07213C20A1
:104D7000FEF759FD00213D20FEF755FD322000F0E1
:104D8000E1FF01210720FEF74EFD0121172002E07F
:104D900060000020AEE0FEF746FD322000F0D2FFBA
:104DA0004FF4BD511020FEF73EFD40F217211120B7
:104DB000FEF739FD4FF48F711220FEF734FD4FF4EA
:104DC00070611320FEF72FFD00212A20FEF72BFD36
:104DD0000A212920FEF727FD4FF49F711220FEF7CC
:104DE00022FD00215020FEF71EFDEF215120FEF78D
:104DF0001AFD00215220FEF716FD40F23F1153200C
:104E0000FEF711FD4FF41C516020FEF70CFD01214F
:104E10006120FEF708FD00216A20FEF704FD002155
:104E20008020FEF700FD00218120FEF7FCFC002120
:104E30008220FEF7F8FC00218320FEF7F4FC00211D
:104E40008420FEF7F0FC00218520FEF7ECFC132106
:104E50009020FEF7E8FC4FF440719220FEF7E3FC4F
:104E600005219320FEF7DFFC00219520FEF7DBFCF7
:104E700000219720FEF7D7FC00219820FEF7D3FCF5
:104E80004FF480710120FEF7CEFC4FF4E061022068
:104E9000FEF7C9FC41F238010320FEF7C4FC0021F3
:104EA0000420FEF7C0FC00210C20FEF7BCFC002112
:104EB0000F20FEF7B8FC00212020FEF7B4FC0021F3
:104EC0002120FEF7B0FC21210720FEF7ACFC1420C6
:104ED00000F038FF61210720FEF7A5FC142000F048
:104EE00031FF40F273110720FEF79DFC142000F003
:104EF00029FF98E4FE488088A0F5354105397DD129
:104F00000846FEF790FC00210846FEF78CFC0021C5
:104F10000846FEF788FC00210846FEF784FC0121C4
:104F2000A420FEF780FC142000F00CFF4FF41C516D
:104F30006020FEF778FC40F202210820FEF773FCA7
:104F40004FF405713020FEF76EFC43F215713120ED
:104F5000FEF769FC40F204613220FEF764FC40F683
:104F600016613320FEF75FFC42F211213420FEF778
:104F70005AFC4FF4A8513520FEF755FC48F2075172
:104F80003620FEF750FC41F207413720FEF74BFC7C
:104F900041F203413820FEF746FC20213920FEF77C
:104FA00042FC1A219020FEF73EFC00211020FEF763
:104FB0003AFC07211120FEF736FC00211220FEF7F3
:104FC00032FC00211320FEF72EFC142000F0BAFE64
:104FD0004FF4E6611020FEF726FC40F23711112055
:104FE000FEF721FC142000F0ADFE4FF4DC7112201E
:104FF000FEF719FC142000F0A5FE00E083E04FF45A
:1050000070611320FEF70FFC80212A20FEF70BFCB5
:1050100048212920FEF707FC142000F093FE4FF4EE
:1050200080710120FEF7FFFB4FF4E0610220FEF7E4
:10503000FAFB41F238010320FEF7F5FB40F20221B2
:105040000820FEF7F0FB00210A20FEF7ECFB002110
:105050000C20FEF7E8FB00210D20FEF7E4FB3021D9
:105060000E20FEF7E0FB00215020FEF7DCFBEF21D5
:105070005120FEF7D8FB00215220FEF7D4FB40F26E
:105080003F115320FEF7CFFB4FF41C516020FEF779
:10509000CAFB01216120FEF7C6FB00216A20FEF752
:1050A000C2FB11219020FEF7BEFB4FF4C06192209D
:1050B000FEF7B9FB40F202419320FEF7B4FB022158
:1050C0009420FEF7B0FB142000F03CFE01210720E5
:1050D000FEF7A9FB142000F035FE61210720FEF742
:1050E000A2FB40F273110720FEF79DFB0021202058
:1050F000FEF799FB00212120FEF795FB22210020DD
:10510000FEF791FB12E37A488088A0F54541053906
:105110007DD10846FEF787FB00210846FEF783FB9A
:10512000142000F00FFE00210846FEF77CFB002152
:105130000846FEF778FB00210846FEF774FB0021C5
:105140000846FEF770FB0121A420FEF76CFB14203B
:1051500000F0F8FD4FF41C516020FEF764FB40F6B0
:1051600006010820FEF75FFB40F203713020FEF7D6
:105170005AFB01213120FEF756FB04213220FEF7B5
:1051800052FB4FF481713320FEF74DFB4FF4407119
:105190003420FEF748FB40F203113520FEF743FBB5
:1051A0001F213620FEF73FFB40F203713720FEF748
:1051B0003AFB01213820FEF736FB04213920FEF7A7
:1051C00032FB15219020FEF72EFB4FF48261102058
:1051D000FEF729FB40F247211120FEF724FB4FF494
:1051E000DE711220FEF71FFB4FF460611320FEF703
:1051F0001AFB782000F0A6FD4FF480710120FEF725
:1052000012FB4FF400710220FEF70DFB00E050E0AE
:1052100041F230010320FEF706FB08210A20FEF7C9
:1052200002FB00210C20FEF7FEFA20210E20FEF7E3
:10523000FAFA00210F20FEF7F6FA00212020FEF7EF
:10524000F2FA00212120FEF7EEFA3D212A20FEF796
:10525000EAFA142000F076FD2D212920FEF7E3FA6A
:1052600000215020FEF7DFFA4DF2EF015120FEF74A
:10527000DAFA00215220FEF7D6FA40F23F1153200D
:10528000FEF7D1FA00216120FEF7CDFA00216A2055
:10529000FEF7C9FA4FF440719220FEF7C4FA0521D7
:1052A0009320FEF7C0FA4FF480710720FEF7BBFA97
:1052B0003CE20F488088A0F5094189397ED101215F
:1052C0000020FEF7B0FA4AF6A4010320FEF7ABFA7D
:1052D00000210C20FEF7A7FA40F60C010D20FEF786
:1052E000A2FA4FF42C510E20FEF79DFAB02101E0F6
:1052F000600000201E20FEF796FA42F63F310120A2
:10530000FEF791FA4FF4C0610220FEF78CFA0021FB
:105310001020FEF788FA46F278011120FEF783FA92
:1053200000210520FEF77FFA00210620FEF77BFA18
:105330004EF61C711620FEF776FA03211720FEF7B1
:1053400072FA40F233210720FEF76DFA00210B209C
:10535000FEF769FA00210F20FEF765FA00214120CF
:10536000FEF761FA00214220FEF75DFA0021482095
:10537000FEF759FA40F23F114920FEF754FA002196
:105380004A20FEF750FA00214B20FEF74CFA4FF46A
:105390006F414420FEF747FA00214520FEF743FA0B
:1053A00040F23F114620FEF73EFA40F207713020EE
:1053B000FEF739FA4FF40171312000E03FE0FEF7CB
:1053C00032FA4FF401713220FEF72DFA40F2025109
:1053D0003320FEF728FA40F207513420FEF723FA73
:1053E0004FF401713520FEF71EFA4FF4017136209B
:1053F000FEF719FA40F202513720FEF714FA40F294
:1054000002313A20FEF70FFA40F202313B20FEF75C
:105410000AFA00212320FEF706FA00212420FEF7D5
:1054200002FA4FF400412520FEF7FDF900214F203C
:10543000FEF7F9F900214E20FEF7F5F976E1F7487D
:105440008088A0F58A4131397ED101210020FEF704
:10545000EAF90A2000F076FC41F228611020FEF7FC
:10546000E2F90E211220FEF7DEF940F63921132071
:10547000FEF7D9F90A2000F065FC40211120FEF763
:10548000D2F950211520FEF7CEF90A2000F05AFC7F
:105490001E211220FEF7C7F90A2000F053FC4FF43A
:1054A000B1511020FEF7BFF942F639211320FEF763
:1054B000BAF90A2000F046FC4FF480710120FEF793
:1054C000B2F94FF440710220FEF7ADF941F2380114
:1054D0000320FEF7A8F940F202210820FEF7A3F905
:1054E00008210A20FEF79FF900213020FEF79BF9E2
:1054F00040F202413120FEF796F94FF483713220D9
:10550000FEF791F940F203513320FEF78CF94FF486
:1055100082713420FEF787F940F201313520FEF721
:1055200082F940F207713620FEF77DF940F205312D
:105530003720FEF778F94FF402713820FEF773F93F
:1055400040F60B71392000E03BE0FEF76CF90221D8
:105550004120FEF768F94FF41C516020FEF763F913
:1055600001216120FEF75FF94FF404719020FEF7EE
:105570005AF94FF485719220FEF755F904219320D2
:10558000FEF751F94FF48071A020FEF74CF901218C
:105590000720FEF748F921210720FEF744F92321CF
:1055A0000720FEF740F933210720FEF73CF940F2CF
:1055B00033110720FEF737F90021A020FEF733F959
:1055C000B4E096488088A0F58A413539F8D1302179
:1055D0001520FEF728F910219A20FEF724F9202142
:1055E0001120FEF720F943F228411020FEF71BF9A5
:1055F00002211220FEF717F941F238011320FEF7BD
:1056000012F9282000F09EFB12210846FEF70BF944
:10561000282000F097FB43F220411020FEF703F909
:1056200043F238011320FEF7FEF8462000F08AFB13
:1056300000213020FEF7F7F840F202413120FEF75A
:10564000F2F840F207313220FEF7EDF84FF44171E5
:105650003320FEF7E8F804213420FEF7E4F840F2A6
:1056600001413520FEF7DFF840F207713620FEF7E2
:10567000DAF840F205313720FEF7D5F84FF4C26171
:105680003820FEF7D0F84FF4C2613920FEF7CBF88E
:105690004FF480710120FEF7C6F84FF440710220EC
:1056A000FEF7C1F841F230010320FEF7BCF840F6E6
:1056B00008010820FEF7B7F808210A20FEF7B3F822
:1056C0004FF41C516020FEF7AEF801216120FEF777
:1056D000AAF84FF49F719020FEF7A5F84FF480715F
:1056E0009220FEF7A0F84FF480719320FEF79BF80C
:1056F0004FF44051A020FEF796F81021A320FEF7AA
:1057000092F801210720FEF78EF821210720FEF7ED
:105710008AF823210720FEF786F833210720FEF7B9
:1057200082F840F233110720FEF77DF80020FEF7E3
:10573000CDFA01203A4908604FF6FF70FEF73DFBB5
:105740001FB000BD2DE9F04F05460E46174698469E
:10575000DDF824A04FF0000B781B401C1FFA80FBE3
:10576000344613E021462846FEF78AF8FEF76BF828
:105770004FF0000906E05046FEF74DF809F1010030
:105780001FFA80F9D945F6DB601C84B24445E9DD97
:10579000BDE8F08F2DE9F84F07460D469046994633
:1057A000DDF828B0A8EB0700401C80B20090A9EB00
:1057B0000500401C1FFA80FA002415E0281981B268
:1057C0003846FEF75DF8FEF73EF8002607E004FBDA
:1057D0000A603BF8100013490880701C86B20098DC
:1057E0008642F4DB601C84B25445E7DBBDE8F88FE9
:1057F0002DE9FF4F84B081468A4600200390029035
:105800000698A0EB09050798A0EB0A06CDF80490CE
:10581000CDF800A0002D07DD01270BE0600000207F
:1058200088024242000010600DB9002702E04FF0EC
:10583000FF376D42002E02DD4FF0010806E016B979
:105840004FF0000802E04FF0FF387642B54201DD2C
:105850002C4600E034464FF0000B21E0009A91B254
:10586000019A90B2FEF7E4F9039828440390029855
:10587000304402900398A04205DD0398001B03907A
:105880000198384401900298A04205DD0298001B5F
:1058900002900098404400900BF101001FFA80FB39
:1058A000601C8345DADD08B0BDE8F08FF0B5044632
:1058B0000D4616461F462B46324629462046FFF720
:1058C00097FF3B46224629462046FFF791FF3B467D
:1058D000324639462046FFF78BFF3B463246294683
:1058E0003046FFF785FFF0BD2DE9F04306460F4631
:1058F0009046002445460320A0EB48093CE07A1B73
:1059000091B2321990B2FEF793F93A1B91B2721923
:1059100090B2FEF78DF93A1991B2721990B2FEF772
:1059200087F97A1991B2321990B2FEF781F97A1992
:1059300091B2321B90B2FEF77BF93A1991B2721B09
:1059400090B2FEF775F97A1B91B2321B90B2FEF756
:105950006FF93A1B91B2721B90B2FEF769F9641CA1
:10596000B9F1000F03DAA000801D814404E0601B40
:1059700080000A3081446D1EAC42C0DDBDE8F0837A
:105980002DE9F84F05460F4690461E460097C5483C
:10599000B0F80090A8F1200000F0FF080A98002855
:1059A0004ED1002449E00C2E07D108EB4800BE4937
:1059B00001EB800010F804A004E0BC4800EB0810E4
:1059C00010F804A04FF0000B31E01AF0800F03D064
:1059D000B448A0F8009003E0B5480088B1490880B9
:1059E00039462846FEF724F94FEA4A604FEA106A22
:1059F000781C87B2AF480088A84204DCA948A0F808
:105A00000090BDE8F88F0098381AB0420BD1009F83
:105A1000681C85B2A7480088A84203DCA148A0F80A
:105A20000090EEE706E00BF1010000F0FF0BBBF188
:105A3000080FCADB00BF601CC4B2B442B3DB44E051
:105A4000002440E00C2E07D108EB4800964901EBFA
:105A5000800010F804A004E0944800EB081010F84F
:105A600004A04FF0000B28E01AF0800F03D0394655
:105A70002846FEF7DDF84FEA4A604FEA106A781CC4
:105A800087B28C484088A84203DC8648A0F8009082
:105A9000B7E70098381AB0420BD1009F681C85B256
:105AA00084480088A84203DC7E48A0F80090A8E75C
:105AB00006E00BF1010000F0FF0BBBF1080FD3DB98
:105AC00000BF601CC4B2B442BCDB7648A0F80090B2
:105AD00000BF96E710B50246012000E050430B00DE
